:020000040800F2
:100000000090002041A3000891A3000891A30008DC
:1000100000000000000000000000000000000000E0
:1000200000000000000000000000000091A3000894
:10003000000000000000000091A30008BB8D000834
:1000400091A3000891A3000891A3000891A30008C0
:1000500091A30008B5910008C9910008DD9100083E
:1000600091A3000891A3000891A3000891A30008A0
:1000700091A30008AD870008C5870008DD87000848
:10008000F58700080D880008258800083D880008CD
:10009000558800086D880008858800080D2900082B
:1000A0002529000891A3000891A3000861A0000879
:0C00B00079A0000895A0000891A30008AA
:1000BC0003B47146490840004900095E49008E446A
:1000CC0003BC7047002243088B4274D303098B4254
:1000DC005FD3030A8B4244D3030B8B4228D3030C0C
:1000EC008B420DD3FF22090212BA030C8B4202D3AE
:1000FC001212090265D0030B8B4219D300E0090AD6
:10010C00C30B8B4201D3CB03C01A5241830B8B42DE
:10011C0001D38B03C01A5241430B8B4201D34B03C7
:10012C00C01A5241030B8B4201D30B03C01A52412C
:10013C00C30A8B4201D3CB02C01A5241830A8B42B1
:10014C0001D38B02C01A5241430A8B4201D34B029A
:10015C00C01A5241030A8B4201D30B02C01A5241FE
:10016C00CDD2C3098B4201D3CB01C01A52418309B2
:10017C008B4201D38B01C01A524143098B4201D3EC
:10018C004B01C01A524103098B4201D30B01C01A17
:10019C005241C3088B4201D3CB00C01A5241830891
:1001AC008B4201D38B00C01A524143088B4201D3BE
:1001BC004B00C01A5241411A00D20146524110461E
:1001CC007047FFE701B5002000F0F0F802BDC04613
:1001DC000029F7D076E7704703460B437FD4002203
:1001EC0043088B4274D303098B425FD3030A8B42BF
:1001FC0044D3030B8B4228D3030C8B420DD3FF2229
:10020C00090212BA030C8B4202D31212090265D0F6
:10021C00030B8B4219D300E0090AC30B8B4201D3A9
:10022C00CB03C01A5241830B8B4201D38B03C01AF0
:10023C005241430B8B4201D34B03C01A5241030B67
:10024C008B4201D30B03C01A5241C30A8B4201D318
:10025C00CB02C01A5241830A8B4201D38B02C01AC3
:10026C005241430A8B4201D34B02C01A5241030A3A
:10027C008B4201D30B02C01A5241CDD2C3098B421F
:10028C0001D3CB01C01A524183098B4201D38B019C
:10029C00C01A524143098B4201D34B01C01A52413F
:1002AC0003098B4201D30B01C01A5241C3088B4284
:1002BC0001D3CB00C01A524183088B4201D38B006F
:1002CC00C01A524143088B4201D34B00C01A524111
:1002DC00411A00D201465241104670475DE0CA0FE8
:1002EC0000D04942031000D34042534000229C46A8
:1002FC0003098B422DD3030A8B4212D3FC228901B2
:10030C0012BA030A8B420CD3890192118B4208D387
:10031C00890192118B4204D389013AD0921100E0E9
:10032C008909C3098B4201D3CB01C01A52418309FD
:10033C008B4201D38B01C01A524143098B4201D32A
:10034C004B01C01A524103098B4201D30B01C01A55
:10035C005241C3088B4201D3CB00C01A52418308CF
:10036C008B4201D38B00C01A5241D9D243088B4225
:10037C0001D34B00C01A5241411A00D201466346C8
:10038C0052415B10104601D34042002B00D549422C
:10039C00704763465B1000D3404201B5002000F06B
:1003AC0005F802BD0029F8D016E770477047C04623
:1003BC008446100062468C461900634600E0C04635
:1003CC001FB50EF04DFC002801D40021C8421FBD02
:1003DC0010B50EF08DFB4042013010BD10B50EF083
:1003EC003FFC002801DB002010BD012010BDC046E1
:1003FC0010B50EF035FC002801DD002010BD0120E9
:10040C0010BDC04610B50EF0B7FB002801DC002073
:10041C0010BD012010BDC04610B50EF0ADFB00287C
:10042C0001DA002010BD012010BDC0468446080032
:10043C006146FFE71FB50DF015F9002801D4002126
:10044C00C8421FBD10B50DF095F84042013010BDEB
:10045C0010B50DF007F9002801DB002010BD0120BC
:10046C0010BDC04610B50DF0FDF8002801DD0020D0
:10047C0010BD012010BDC04610B50DF0A3F800282A
:10048C0001DC002010BD012010BDC04610B50DF0E0
:10049C0099F8002801DA002010BD012010BDC046DB
:1004AC00002B11D1002A0FD1002900D1002802D035
:1004BC000021C943080007B4024802A14018029069
:1004CC0003BDC046E9FEFFFF03B4684601B50298C0
:1004DC000CF0E2FC019B9E4602B00CBC7047C0467F
:1004EC001C2101231B04984201D3000C10391B0A58
:1004FC00984201D3000A08391B09984201D300091C
:10050C00043902A2105C40187047C0460403020272
:10051C0001010101000000000000000010B50029DD
:10052C0003D1FFF7DDFF203002E00800FFF7D8FF12
:10053C0010BDC04610B5064C2378002B07D1054BD7
:10054C00002B02D0044800E000BF0123237010BD33
:10055C00400200200000000040FE0008044B10B5D3
:10056C00002B03D00349044800E000BF10BDC04677
:10057C00000000004402002040FE000810B5036893
:10058C00984710BD10B5012800D010BD064B9942FC
:10059C00FBD1064A0648482102F04EFE05481622B9
:1005AC00172102F085FAF0E7FFFF0000AC0D0020E8
:1005BC00500B00205C02002010B504008368002B57
:1005CC0002D0032201009847200010BD10B5002472
:1005DC00194B1B68A34207DD184BA200D058012110
:1005EC0009F0D2FF0134F3E7002406E0144BA2001B
:1005FC00D058012109F0C8FF0134072CF6DD114B4E
:10060C001B78002B17D1002406E00C4BA200D0580D
:10061C0001210AF03BF80134074B1B68A342F4DCC0
:10062C000024072C07DC064BA200D05801210AF04D
:10063C002DF80134F5E710BDAC000020A40000201B
:10064C0084000020A80D002030B583B002110F23C8
:10065C001A40034000930192002538E0012142E04A
:10066C00AB006A469958254BCA00521A9B18195D63
:10067C0001235940C9B20AF009F80134062C0FDCE9
:10068C001F4BA200D0581F4B1B78002BE8D0AB009F
:10069C006A469958194BCA00521A9B18195DEAE719
:1006AC00174BD869174B1B78002B20D0002109F071
:1006BC00EDFF05200AF04EF8134BAA00D058114B51
:1006CC001B78002B15D0012109F0E0FF01350F4BF1
:1006DC001B68AB420FDD0C4BAA00D058094B1B78A2
:1006EC00002BBBD0002109F0D1FF0024C6E701216B
:1006FC00DDE70021E8E703B030BDC0460000002074
:10070C0084000020A80D0020A4000020AC000020D4
:10071C00F0B5C64600B500AF041C5B4B1D68AB00C2
:10072C000733DB08DB006A46D31A9D466E466B1C0A
:10073C0098460FF0DBF9554A554BFFF763FE00283E
:10074C000CD1002373605349201C0CF0D9FF0DF021
:10075C00A7FA306002239846002570E0FE21890537
:10076C00201CFFF789FE002809D04A49201C0CF0F8
:10077C00E1FD041C01235B429C46E044EEE72800AB
:10078C000DF0AEFA0FF0B2F902000B000020424956
:10079C000BF0D8FA0FF0F2F9011C201C0CF0B0FF92
:1007AC00041C0025384B1B68AB42D5DD201C0DF01A
:1007BC0077FA0A21FFF7F6FDAB00F1503549201C02
:1007CC000CF0B8FD041C0135ECE7012143E0AB0053
:1007DC009959324BCA00521A9B18195D0123594082
:1007EC00C9B209F053FF0134062C0EDC2C4BA200CD
:1007FC00D0582C4B1B78002BE9D0AB009959274BC8
:10080C00CA00521A9B18195DEBE76C1C444526D0A4
:10081C00234BD869234B1B78002B2CD0002109F0DB
:10082C0035FF052009F096FF1F4BAD00E8581D4B16
:10083C001B78002B21D0012109F028FF2500124B39
:10084C001B68AB421BDD184BAA00D058154B1B780C
:10085C00002BBAD0002109F019FF0024C4E7104B7B
:10086C00D869104B1B78002B03D0012109F00EFF27
:10087C00D7E70021FAE70121D1E70021DCE7BD46EB
:10088C0080BCB846F0BDC046AC000020AE47E17A53
:10089C0014AEEF3F00002041000024400000002077
:1008AC0084000020A80D0020A400002010B5002416
:1008BC0003E0002109F0EAFE0134074B1B68A34258
:1008CC0008DD064BA200D058054B1B78002BF0D04E
:1008DC000121EFE710BDC046AC000020A4000020B1
:1008EC00A80D002070B5002528E0012132E01D4B39
:1008FC001B78002B01D0012102E0002100E0012136
:10090C0009F0C4FE0134072C0ADC174BA200D058A6
:10091C00062CECD0134B1B78002BF0D00021EFE70A
:10092C00052009F017FF114BAA00D0580D4B1B786E
:10093C00002B13D0012109F0A9FE01350C4B1B68CB
:10094C00AB420DDD094BAA00D058064B1B78002B8F
:10095C00CBD0002109F09AFE0024D4E70021EAE76D
:10096C0070BDC046A80D002084000020A40000200B
:10097C00AC00002010B509F0E9FE254B1B68022BDA
:10098C0036D013DC002B22D0012B30D1214B1B682D
:10099C00C31AFA225200934205D31D4BF33AFF3A85
:1009AC001A601C4B1860FFF781FF20E0032B1ED14F
:1009BC00184B1B68C31AFA225200934204D3144BEF
:1009CC0000221A60134B1860FFF770FF0FE0114BF9
:1009DC001B68C31AFA229200934204D30C4B0122D7
:1009EC001A600C4B18600C4B1868FFF791FE10BD89
:1009FC00084B1B68C31AFA229200934204D3044B8F
:100A0C0003221A60034B1860FFF76CFFEFE7C04638
:100A1C00980D00209C0D0020940D0020F0B5C646CA
:100A2C0000B500AF041C88465E4B1D68AB00073355
:100A3C00DB08DB006A46D31A9D466E460FF056F86B
:100A4C00594A5A4BFFF7DEFC00280AD10023736089
:100A5C005749201C0CF054FE0DF022F93060002593
:100A6C007CE0FE218905201CFFF706FD002805D03F
:100A7C004F49201C0CF05EFC041CF2E728000DF022
:100A8C002FF90FF033F802000B00002049490BF04E
:100A9C0059F90FF073F8011C201C0CF031FE041CEA
:100AAC000025404B1B68AB42D9DD201C0DF0F8F83B
:100ABC000A21FFF777FCAB00F1503D49201C0CF0EC
:100ACC0039FC041C0135ECE7012153E0AB009959CA
:100ADC00394BCA00521A9B18195D01235940C9B2EF
:100AEC0009F0D4FD0134062C0EDC344BA200D05896
:100AFC00334B1B78002BE9D0AB0099592E4BCA0015
:100B0C00521A9B18195DEBE7002D0ED14346002BB2
:100B1C000BD02A4BD8692A4B1B78002B03D0012110
:100B2C0009F0B4FD0AE00021FAE7244BD869244B04
:100B3C001B78002B22D0002109F0A8FD012D1FD01D
:100B4C00052009F007FE1F4BAA00D0581C4B1B7840
:100B5C00002B21D0012109F099FD0135114B1B68A7
:100B6C00AB421BDD174BAA00D058154B1B78002B42
:100B7C00AAD0002109F08AFD0024B4E70121DBE7AB
:100B8C000E4BD8690E4B1B78002B03D0012109F0BA
:100B9C007DFDD5E70021FAE70021DCE7BD4680BCEE
:100BAC00B846F0BDAC000020AE47E17A14AEEF3F82
:100BBC0000002041000024400000002084000020A0
:100BCC00A80D0020A400002010B509F0BFFD0A4BB1
:100BDC001B68C31AFA225200934206D3074A1378B1
:100BEC0001214B401370044B1860044B1978044BD3
:100BFC001868FFF713FF10BDA40D0020A00D0020F6
:100C0C00940D002010B50D4B1B78002B0AD10C4B0A
:100C1C001B78032B0BD0012B0CD00A4B1868FFF759
:100C2C0077FD10BD084B1868FFF70EFDF9E7FFF7CD
:100C3C00A1FEF6E7FFF7C8FFF3E7C0468F0D0020D3
:100C4C0082000020940D0020900D002010B50EF0B5
:100C5C001DFF0F4A0F4B0EF075F80EF08FFF0EF0C4
:100C6C0045FF0D4A0D4B0DF027FC00220C4B0EF0EE
:100C7C0069F80CF0F3F884B26400A4B20121C4202A
:100C8C0009F082FC2100C42009F0ACFB10BDC04669
:100C9C002D431CEBE2361A3F23DBF97E6ABC0A407B
:100CAC00E0FFEF4070B504001F4B1B78012B00D008
:100CBC0070BD1E4802F012FB1D490CF021FD061CF4
:100CCC0020000EF0E3FE1B4A1B4B0EF03BF80EF01F
:100CDC0055FF0EF00BFF194A194B0DF0EDFB0022DE
:100CEC00184B0EF02FF80CF0B9F885B26D00ADB2C0
:100CFC000021301CFFF7C0FB00280FD020000DF0A6
:100D0C003BF8311C0CF016FB041C28000CF0E8FF1F
:100D1C00211C0CF0F5FC0CF089F885B22900C420DC
:100D2C0009F060FBC4E7C04682000020500B002095
:100D3C0000007A442D431CEBE2361A3F6666666669
:100D4C0066660A40E0FFEF4010B5084B98420BD99D
:100D5C00074B9C4660440A21FFF73EFA80B2FF28FD
:100D6C0000D9FF20C0B210BD0020FCE7C309000071
:100D7C003CF6FFFF022A0AD007D8002A03D0012A2A
:100D8C0003D1016001E000230360002070470B6871
:100D9C000360FAE710B5012A02D10160002010BDF2
:100DAC00FFF7E8FFFAE7000010B502490120FFF752
:100DBC00E9FB10BDFFFF000070B505000E000C4CE8
:100DCC005021200000F07AFE290A200000F0BCFE21
:100DDC00E9B2200000F0B8FE3100200000F0B4FEB3
:100DEC00200000F0A6FF052009F0B4FC70BDC04641
:100DFC00AC0D002070B504000D0AC9B2FFF7DCFF82
:100E0C00FA34A0B22900FFF7D7FF70BD10B51A4B0A
:100E1C0018880921FFF7D0FF184B18880021FFF71D
:100E2C00CBFF174B18880021FFF7E4FF154B1888F0
:100E3C000021FFF7DFFF144B18880021FFF7DAFFC2
:100E4C00012407E0114B00221A55A0B20021FFF734
:100E5C00B3FF0134FA235B009C42F3DB0C4B0922F9
:100E6C001A700C4A002313800B4A13800B4A138010
:100E7C000B4A138010BDC046800000207E0000206D
:100E8C007C0000207A000020780000208C0B0020D1
:100E9C0082000020860D0020820D0020800D002095
:100EAC00880D002070B505000C4C5021200000F07E
:100EBC0005FE290A200000F047FEE9B2200000F0F0
:100ECC0043FE200000F035FF01225021200000F0ED
:100EDC0029FF200000F036FDC0B270BDAC0D002023
:100EEC0070B50400FFF7DEFF0500FA34A0B2FFF77F
:100EFC00D9FF0002284380B270BD000010B51B4B17
:100F0C001888FFF7CFFF1A4B18701A4B1888FFF789
:100F1C00C9FF194B1870002807D08300C3185B0059
:100F2C00164A94466344164A1380164B1888FFF7EA
:100F3C00D7FF154B1880154B1888FFF7D1FF144CB1
:100F4C000CF01AFF2060134B1888FFF7C9FF124BE7
:100F5C001880002405E0A0B2FFF7A4FF0F4B185532
:100F6C000134FA235B009C42F5DB10BD80000020AD
:100F7C00820000207E000020840D0020C4090000A7
:100F8C00860D00207C000020820D00207A000020BD
:100F9C00700B002078000020800D00208C0B0020AE
:100FAC0010B5334802F088F90EF0A0FD0022314B49
:100FBC000DF0C8FE0BF052FF80B22F4B18800CF0D6
:100FCC00DBFE2E490CF0B6F92D4B18600021FFF713
:100FDC0049FA002821D12B4B00221A70244802F028
:100FEC007DF926490CF08CFB40004008264B18601C
:100FFC002649FFF72DFA002803D1254B1B78092B26
:10100C0002D1214B00221A601F4B18680AF076FEA1
:10101C000BF00CFF1F4B188010BD1A4B01221A70DD
:10102C001D4BDF321A6000210C2009F02FFB002130
:10103C00C42009F02BFB0021C42009F0A5FA144BA5
:10104C0009221A70154B1888FFF72CFF0928C5D0F8
:10105C000F4B1978114B1888FFF7AEFE104B00227E
:10106C001A80104B18880021FFF7C4FEB6E7C04663
:10107C00500B002000408F408C0D002000007A4463
:10108C00940D00208F0D00206C0B002000002041DF
:10109C00820000208A0D0020900D0020800000208E
:1010AC00880D00207A00002070B584B04A4C1422C0
:1010BC001321200001F034FE484E0622310020009E
:1010CC0002F03AF80021C42009F05EFA01210C204C
:1010DC0009F05AFA00210C2009F0D8FA102009F076
:1010EC0067F902210B2009F04FFA02210F2009F0B9
:1010FC004BFAB42007F0B2FC04008021C90507F0BC
:10110C0023FC374D2C6002223C21200007F0A2FA70
:10111C002C680C22002168460AF079FB0822002179
:10112C0068460AF074FB002303932E4B00932E4B5E
:10113C0003932E4B02936946200007F075FC68461A
:10114C00FFF73AFA286807F089F8FFF73FFA284CBE
:10115C003100200000F090FC0021200000F0DAFEAD
:10116C00244C200002F081F80621200002F004F942
:10117C000123214A8221C905200002F017F9FFF74B
:10118C000FFFFF204000FFF78DFE16280DD0FFF754
:10119C00B5FE1A4B1B78012B0FD0022B12D009F085
:1011AC00D5FA174B186004B070BDFFF72FFEFF2067
:1011BC0022214000FFF700FEE9E7124B1888FFF7E9
:1011CC0045FDECE701210C2009F060FA09F0BEFAAC
:1011DC000D4B1860E3E7C0465C02002040420F0054
:1011EC00680B0020110C000889050008A10D0008EF
:1011FC00AC0D0020500B00200AD7233C82000020AD
:10120C00880B0020820D0020800B002070B5184B3D
:10121C001978184C200001F0EDFB174B19782000C1
:10122C0001F0E8FB154B1888154B9C4660440A21CD
:10123C00FEF7D2FFC1B2200001F0DCFB114D298872
:10124C00090A23681B6820009847297823681B68C3
:10125C00200098470C4D2988090A23681B68200038
:10126C009847297823681B682000984770BDC046B2
:10127C008E0D00205C020020820000208C0D0020CE
:10128C003CF6FFFF8A0D0020880D002010B50F4B97
:10129C0019780F4801F0AEFB002406E00D4B195DE8
:1012AC000B4801F0A7FB0134E4B20B4B1B889C42AA
:1012BC00F4DB074C23681B68FF2120009847236848
:1012CC001B68FF212000984710BDC0468E0D0020E2
:1012DC005C0200208C0B0020800D002070B509F002
:1012EC0035FA0400C64801F023FB01280ADC09F09A
:1012FC002DFA001BFA239B009842F3D9C04801F049
:10130C0069FB70BDBE4801F037FBC0B2BD4B1B780A
:10131C00834203D0BA4801F05DFBF2E7B84801F014
:10132C002BFBC0B251281ED0D3286CD023D8A328B5
:10133C0045D0A4281AD1B34B1978B14C200001F038
:10134C0059FB23681B68A42120009847AE4D2988BF
:10135C00090A23681B6820009847297823681B68B2
:10136C0020009847CDE7FFF751FFCAE7112822D19B
:10137C00FFF78CFFC5E7D72866D0D92814D1A34B2B
:10138C0009221A70A24B18880921FFF715FD0021BC
:10139C000C2009F07BF90021C42009F077F9002119
:1013AC00C42009F0F1F8ACE7D52804D1994B1B788F
:1013BC00002B00D18BE0924801F00CFBA1E7914B84
:1013CC0019788F4C200001F015FB23681B68A321B2
:1013DC0020009847904D2988090A23681B68200033
:1013EC009847297823681B68200098478B4D2988DB
:1013FC00090A23681B6820009847297823681B6812
:10140C00200098477DE77F4B19787D4C200001F038
:10141C00F1FA23681B68D321200098477B4B1B787B
:10142C00022B00D06DE700210C2009F02FF9774B2F
:10143C0001221A70764B18880121FFF7BDFC764B00
:10144C001888FFF703FC5CE700210C2009F01EF95B
:10145C000021C42009F01AF90021C42009F094F8E5
:10146C006B4B18880921FFF7A7FC6D4B18880021DE
:10147C00FFF7A2FC6B4B18880021FFF7BBFC6A4BF3
:10148C0018880021FFF7B6FC684B18880021FFF77D
:10149C00B1FC012407E0664B00221A55A0B20021D2
:1014AC00FFF78AFC0134FA235B009C42F3DB574BB9
:1014BC0009221A70594A002313805E4A00211170C8
:1014CC00554A1380504A13805B4A138019E709F080
:1014DC003DF904004A4801F02BFA02280ADC09F015
:1014EC0035F9001BFA239B009842F3D9444801F0CC
:1014FC0071FA06E7424D280001F03EFA040028007C
:10150C0001F03AFAC0B2FF2323401B020343424AC4
:10151C0013804A4A934212D809F018F9040038484B
:10152C0001F006FA002811DC09F010F9001BFA236F
:10153C009B009842F3D9324801F04CFAE1E6364B65
:10154C0000221A802E4801F045FADAE62C4801F008
:10155C0013FAC1B2374B1970FF22024093009B184B
:10156C005B00374A944663442C4A1380354A9342B5
:10157C0005D92A4B00221A802E4B1A70C1E6284B33
:10158C001888FFF737FC244B1988264B1888FFF76F
:10159C0031FC254B18880021FFF72CFC234B1888B5
:1015AC000021FFF727FC012407E0214B00221A55EC
:1015BC00A0B20021FFF700FC0134FA235B009C422F
:1015CC00F3DB124B02221A70114B18880221FFF721
:1015DC00F3FB0021C42009F059F80021C42008F0C5
:1015EC00D3FF01210C2009F051F8074B00221A807F
:1015FC00114B1A8009F0AAF8134B186081E6C0460B
:10160C005C0200208E0D0020800D00208200002046
:10161C00800000208F0D0020820D0020860D002000
:10162C007E0000207C0000207A0000207800002042
:10163C008C0B0020840D0020880D002088130000E6
:10164C00C409000068100000800B0020F8B5FFF7FB
:10165C00A7FC854801F06CF9002815DC834B1B783E
:10166C00022B14D0814B1B78012B2AD0804B1B787A
:10167C00002B00D0D9E07D4B1B78092B00D1EEE07C
:10168C00032B00D1EBE0F8BDFFF728FEE6E709F0ED
:10169C005DF8784B1B68C01AFA23DB009842E1D93D
:1016AC000B2009F023F80028E0D100210C2008F0D1
:1016BC00EDFF6F4B01221A7009F048F86E4B186061
:1016CC00D4E700210C2008F0E1FF6C4B1888FFF7E1
:1016DC00E9FA09F03BF86A4B1B68C01AFA239B0025
:1016EC00984257D209F032F8664B1B68C01A664B09
:1016FC00984275D8654B1A88654B1B889A42B5D8A9
:10170C0009F024F85E4B1B68C01A0CF035FB614BDA
:10171C0019680BF0F5FF0EF0E9F900225E4B0CF0A6
:10172C00CBFE04000D005D4E30680EF0DFF9220098
:10173C002B000CF063FB0EF021FA30600BF076FB03
:10174C0081B2574B1980574B1888FFF753FB474B07
:10175C0003221A70544B18880321FFF72DFB534BAF
:10176C0018880021FFF728FB514B18880021FFF740
:10177C0041FB474B00221A804E4B002119703F4B06
:10178C001A800021C42008F081FF0021C42008F039
:10179C00FBFE6BE708F0DAFF394E3368C01A0CF029
:1017AC00EBFA3C4B19680BF0ABFF0EF09FF90022E3
:1017BC00394B0CF081FE04000D00384F38680EF0E8
:1017CC0095F922002B000CF019FB0EF0D7F93860BC
:1017DC000BF02CFB324B188008F0B8FF306081E71F
:1017EC00354C2188354B1888FFF704FB274B18889C
:1017FC00FFF7AAFA0100324B18702088314B1954AC
:10180C00FFF7DAFA254B18680BF010FB81B2244B6A
:10181C001980244B1888FFF7EDFA238801332380B5
:10182C0008F094FF174B186064E708F08FFF124B19
:10183C001B68C01AFA23DB00984200D81BE70C4B3C
:10184C0000221A70094B01321A70174B18880121AB
:10185C00FFF7B2FA094B1888FFF7F8F90BE70021EC
:10186C000C2008F013FF0EE75C0200208200002021
:10187C007C0B0020800B0020780B0020820D0020B8
:10188C00840B0020880B0020307500008C0D00208C
:10189C00860D00206C0B002040774B41700B002014
:1018AC00880D00207A000020800000207E0000209F
:1018BC007C000020840D0020800D0020780000208A
:1018CC00740B00208C0B00200020704710B5020018
:1018DC0000090F230340042B0BD808489B001C580D
:1018EC000F201040064B8000C358002903D0A36181
:1018FC0010BD0024F4E7A362FAE7C046B80000204C
:10190C0088030108020001090F230B40042B0DD89A
:10191C0008499B0059580F201040074B8000C258B3
:10192C000B6913409A4203D0002070470021F2E764
:10193C000120FAE7B800002088030108038BC08A55
:10194C00181A70470300C28A018B8A4204D20169BB
:10195C00885C0132DA82704701204042FBE7C38A7F
:10196C00028B934202D20269D05C70470120404244
:10197C00FBE7000070B50400194B036000264660BD
:10198C00184B0360FA239B008360174B0360050020
:10199C00C4350C220021280009F039FF082200214F
:1019AC00280009F034FFEE6010350C2200212800CD
:1019BC0009F02DFF08220021280009F028FFEE6015
:1019CC00200028309C22002109F021FF074B996A46
:1019DC008422A1505A6A8823E250200070BDC04670
:1019EC00900A0108A80A010878FE0008080A0108F4
:1019FC0010B50400283000F0ABFDE069002803D0DE
:101A0C0009F0BCFA0023E361002323842069002839
:101A1C0003D009F0B3FA002323610023A38210BD85
:101A2C0010B50400064B0360FFF7E2FF2000D43032
:101A3C00FEF7C2FD2000C430FEF7BEFD200010BD35
:101A4C0078FE000870B504000D00012805D0002CAC
:101A5C0002D1074B9D4207D070BD054B9942F6D180
:101A6C000448FFF787FFF2E70248FFF7D9FFF3E7D7
:101A7C00FFFF0000AC0D002070B5040005002835F8
:101A8C00280000F06FFDBE23E35C002B00D070BD7E
:101A9C000449280000F09FFE0349280000F091FE45
:101AAC00F5E7C0469D1F0008491F000824230122AA
:101ABC00C2544900817600234384704710B5C9B2E3
:101ACC00FFF7F4FF10BD000070B505000C00838A11
:101ADC008B420AD21F2900D820242869210009F042
:101AEC008DFC002802D02861AC8270BD0248210018
:101AFC0007F0EEFCF9E7C04658FE000870B505008B
:101B0C000C008023DB00994217D8038C8B4216D231
:101B1C001F290AD90E00E869310009F06FFC002872
:101B2C0005D0E8612E84200008E02026F3E7054864
:101B3C00310007F0CDFC200000E0002070BD080053
:101B4C00FCE7C04658FE000810B582B004006B4696
:101B5C00D9712423C35C002B10D0418C0131FFF7C9
:101B6C00CDFF002813D0E269638C694607310978F0
:101B7C00D154638C01336384012008E028300122A6
:101B8C006B46D91D00F000FD002802D1013002B0D7
:101B9C0010BD0020FBE770B504000E0015002423D7
:101BAC00C35C002B12D0418C8918FFF7A7FF0028CB
:101BBC0000D170BDE069638CC0182A00310009F0B7
:101BCC00B1FE638C5B1963842800F2E792B2283073
:101BDC0000F0DAFC002801D12800EAE70020E8E751
:101BEC0010B503000069002803D09A8A002109F07F
:101BFC000EFE10BD10B50300C069002803D01A8C6E
:101C0C00002109F004FE10BD70B50400002908D1B4
:101C1C00AA238365BE23E35C012B06D00425E8B21E
:101C2C0070BDAA231B028365F4E7638CE269A17E75
:101C3C002000283000F04EFD022812D00DD80028CC
:101C4C0011D0012811D101252000FFF7D3FF00236B
:101C5C00638400222433E254E1E7032807D10325EF
:101C6C00F2E70225F0E70025EEE70425ECE7042572
:101C7C00EAE7F0B585B004000391019202930AAB38
:101C8C001F780BAB1E78BE23C35C012B02D0002047
:101C9C0005B0F0BD1100FFF717FF002F16D1002E75
:101CAC002ED1AA23A3652269039B5900C9B2200037
:101CBC002830019B00F081FC002801D00023019307
:101CCC000023E382019B23831800E1E703992000A2
:101CDC00FFF7ECFE032F0AD9032708E0EB0002996B
:101CEC00D940C9B223681B68200098472F007D1E7D
:101CFC00EDB2002FF2D100212000FFF785FFCEE7D7
:101D0C00AA231B02A365CEE700B583B00193002381
:101D1C000093FFF7AEFF03B000BD10B50123FFF732
:101D2C00F3FF10BD10B5D2B2C9B20123FFF7ECFF1F
:101D3C0010BD10B50121FFF767FF10BD70B5040091
:101D4C000025C5820583FFF74BFF65842000FFF754
:101D5C0051FF70BD70B584B005008424005908F0A3
:101D6C00CDFA002108F010FC2859FFF7CBFD041E1A
:101D7C0001D004B070BD8823E85808F0BFFA0121E7
:101D8C0008F002FC3CE0039BF31802995B1AD21892
:101D9C00029B039390420AD9284B9B6802930399A8
:101DAC00029B9942EFD3039B02995B1AEFE78823BE
:101DBC00E8580121FFF78AFD204B9A6800925E6873
:101DCC000136F0008019FA218900FEF77BF9009B9F
:101DDC000193002208E0019BF31800995B1AD218BA
:101DEC00009B019390420AD9144B9B680093019974
:101DFC00009B9942EFD3019B00995B1AEFE70134EA
:101E0C00132C13DC8823E8580021FFF75FFD0B4BE4
:101E1C009A6802925E680136F0008019FA218900F6
:101E2C00FEF750F9029B03930022B5E78823E8588C
:101E3C0008F064FA002108F0A7FB9AE710E000E034
:101E4C0010B504008368002B05D0032201009847CD
:101E5C000023A360E360200010BD0000F8B5CE465F
:101E6C00474680B504000E00904699460025002791
:101E7C00C582058305618582FFF7B2FE6584A7766E
:101E8C00E56125842000FFF7B5FE8023E450200097
:101E9C00D4300021FFF7D4FF2423E7547200013320
:101EAC00E254012E00D00026BE23E6544346002BFC
:101EBC001CD00122BF23E2544B46002B18D0012228
:101ECC00C023E2542000FFF745FF250028352523C9
:101EDC00E35C01220C49280000F08AFABE23E35C83
:101EEC00002B07D0C0BCB946B046F8BD0022E1E7D4
:101EFC000022E5E70549280000F06DFC04492800A4
:101F0C0000F05FFCEEE7C046A08601009D1F0008B4
:101F1C00491F000810B50A0000230121FFF79EFF9E
:101F2C0010BD00B583B001918368002B04D0C36849
:101F3C0001A9984703B000BD0DF078FF70B50600FD
:101F4C007436856E846D2300C4339B68002B03D0DC
:101F5C00E28A238B9A4200D270BD29002000FFF741
:101F6C00B3FD20692A00310009F0DCFC0023E38278
:101F7C0025832000C4302900FFF7D3FFECE710B510
:101F8C008368002B02D0C368984710BD0DF04EFF3C
:101F9C0010B5806D0300D4339B68002B04D0002354
:101FAC004384D430FFF7EBFF10BD70B504000D0077
:101FBC000C22002109F02BFC08220021200009F042
:101FCC0026FC0023E360AB68002B07D0022229001B
:101FDC0020009847EB68E360AB68A360200070BDFD
:101FEC0070B582B06B461A00040060CC60C20A0067
:101FFC0060CA60C011CB11C102B070BD70B50500D4
:10200C000C00FFF7EDFFAB68A268AA60A360EB6859
:10201C00E268EA60E36070BD10B584B00400684605
:10202C00FFF7C3FF21006846FFF7E8FF6846FEF79D
:10203C00C3FA200004B010BD10B502490120FFF70F
:10204C0001FD10BDFFFF000010B502490020FFF795
:10205C00F9FC10BDFFFF0000F0B5DE4657464E46BA
:10206C004546E0B59BB003000191022900D940E13F
:10207C00A54AC9008A58824254D0A34A019EF40052
:10208C00A3505808A14A944660441900FEF71AF868
:10209C00070007909E4BA21B92001D00D1584808C8
:1020AC009A4A94466044FEF70DF80990A41BA400CC
:1020BC002C19228B9046A2894244323AA17EC81C2C
:1020CC007843161AE289E08A8346121A053AFF3AD7
:1020DC00081D7843131A9A46278A5F44002E2BDD7D
:1020EC005346002B2ADD079B4B439946884A019D9A
:1020FC00EB005B1B9B00D41861688448FDF7E2FF82
:10210C000490A1688148FDF7DDFF1290099B0893AC
:10211C0000230B9310330D930021113B0C934C4671
:10212C00AC46E0E0784A0199C900521852680C920A
:10213C00002A00D0E0E0A0E70026D1E700239A4671
:10214C00D1E7181B28E0013292B2FF2A4ED8019237
:10215C00531C60464343F318029882465344484646
:10216C00C0184018039C0419A742ECD80498A0424C
:10217C00E9D3674805904046C0004546401B8000A7
:10218C00834605985844808A9842DCD80798984230
:10219C00D9D2099BE01AD4D4089B9842D3D20F9B76
:1021AC001B070E9C2405A346F0242404A2465C467F
:1021BC0055462C401C43A2460A9B1B04F0242403C6
:1021CC00234054462343019C2406240C2343FF2420
:1021DC00069D2C401C430C944B4B4546ED00AA46E7
:1021EC0053445C600B9B0D930890ACE78B461098A6
:1021FC006346BC469946069B01339BB20693069BED
:10220C00FF2B22D805003235069B591C4B465943EF
:10221C00079C6600891969183D4B4246D200474617
:10222C00D21B92009B185B8A8B42E4D20B00323B90
:10223C001B1A9B08A342DED90022029510904B4634
:10224C006746894659469C467FE7039B98461699F4
:10225C00179E189D199B814615980133DBB20F2BE5
:10226C001ED80A931A004243079C62439642F4D844
:10227C009542F2D30D9A0B9FBA42EED00131072949
:10228C003AD8444300220692424603921590169186
:10229C001796189519934846A146119B9846AEE798
:1022AC00139A149F4C46119B9C460132D2B20F2AB2
:1022BC0014D80E92531C0B980F9001308146434357
:1022CC00079843439F42F0D8002348461392149733
:1022DC00A14662461192129A9446C0E7AA460B9BFD
:1022EC000133DBB20B930B9B0F2B05D80022554609
:1022FC00DDE701235B420C930C981BB0F0BCBB4692
:10230C00B246A946A046F0BD980E002000CA9A3BE2
:10231C002CFF000870B50400174B984205D000251F
:10232C00164B9C4223D0280070BD202003F002FAEB
:10233C00051EF5D1124B5B6DC02292011340802219
:10234C00520193420AD08022920193420DD0002B6D
:10235C0007D00C48F52107F0BBF8E1E70A4B1D68E4
:10236C00DEE703F0B9F90500DAE7084DD8E703F02A
:10237C00B3F90500D7E7C0460054004000580040B0
:10238C00001002409CFE0008F40000200024F40021
:10239C0010B5144B994207D9134B994212D9134BD0
:1023AC00994202D900200CE00E4B0F4A93420BD0FD
:1023BC000E4A93420FD00068FFF7ACFF0021FFF7E5
:1023CC004BFE10BD084BF0E70068FFF7A3FF01219F
:1023DC00FFF742FEF5E70068FFF79CFF0221FFF7CD
:1023EC003BFEEEE7A0860100801A060040420F007B
:1023FC00F0B585B00400009101921E00002857D062
:10240C00071D4849C06D07F02CF805004649206EA1
:10241C0007F027F80100002D47D0002845D02800F0
:10242C0007F04CF82060002844D0404B984245D02F
:10243C0022683F4B9A4258D03B49206E06F0F0FF81
:10244C003849E06D06F0ECFF2368636000992000CA
:10245C00FFF79EFFA060E6600023A361019A226152
:10246C0063619733E35C002B01D080231B03236251
:10247C009823E35C002B01D080239B0263624523ED
:10248C000022E25464256057022101F093F9605751
:10249C0001F094F9380001F0BDFC00283CD1002378
:1024AC00A36695330222E25402E0224807F006FFAD
:1024BC0005B0F0BD204807F001FFF9E71F4BD96BC1
:1024CC00802292031143D963D96B11400291029976
:1024DC00D96A0A43DA62DA6A19490A40DA62642371
:1024EC001722E254174B1F60A2E7144BD96B8022C2
:1024FC00D2031143D963D96B114003910399D96A63
:10250C000A43DA62DA6A10490A40DA626423182252
:10251C00E2540C4B5F608FE7C4210C48890006F035
:10252C00D7FFBCE72C090108E4080108005400405F
:10253C0000580040C0FE0008F0FE000800100240E9
:10254C00FFFFDFFF900E0020FFFFBFFF9CFE000887
:10255C0010B504006423C05601F03CF9201D01F0B5
:10256C00C0FC10BD70B50400FFF712FF6268136861
:10257C000125AB431360A060201D01F04BFC626889
:10258C0013682B43136070BD30B5202A13D8002478
:10259C0008E09423C35C1B190D5DC31874331D70C4
:1025AC000134E4B29442F4D39421435C9B18DBB223
:1025BC004354002030BD0120FCE7F0B5DE46574601
:1025CC004E464546E0B585B007008A46914698468A
:1025DC0001F080F803903B6B9B460026002302938E
:1025EC003B005F46B3461E000EE001F073F8039B00
:1025FC00C31A9B46642B05D91E000623029313E0D5
:10260C0004230293022C0ED1351D009743464A46F3
:10261C005146280001F0A0FD04000228E5D0002856
:10262C00EED10290EEE75E46029B002B07D002989B
:10263C0005B0F0BCBB46B246A946A046F0BD01F0C1
:10264C0049F80400280002F089FC202809D0632EE8
:10265C0007D801F03FF8061B280002F083FC002885
:10266C00F0D0280002F07EFC632E08D8830609D433
:10267C0043070AD40028DAD004230293D7E70523B2
:10268C000293D4E705230293D1E703230293CEE709
:10269C0010B504000430642301F03CFC02280FD078
:1026AC00032807D000280AD04523E35C202B0FD049
:1026BC00042004E04523E35C202B07D0052010BD4B
:1026CC004523E35C202BFAD00620F8E70220F6E73E
:1026DC000220F4E7F0B5DE4657464E464546E0B5D7
:1026EC0085B0070089469246984600F0F3FF0390A8
:1026FC004346002B09D03B6B9B46002600230293DC
:10270C003B005F46B3461E0015E0012249463800E7
:10271C00FFF7BEFF029021E000F0DCFF039BC31A21
:10272C009B46642B05D91E000623029313E0042359
:10273C000293022C0ED1351D009743465246494652
:10274C00280001F0ADFC04000228E5D00028EED1F1
:10275C000290EEE75E46029B002B07D0029805B074
:10276C00F0BCBB46B246A946A046F0BD00F0B2FF95
:10277C000400280002F0F2FB202809D0632E07D8B1
:10278C0000F0A8FF061B280002F0ECFB0028F0D09C
:10279C00280002F0E7FB632E08D8830609D4430710
:1027AC000AD40028DAD004230293D7E70523029336
:1027BC00D4E705230293D1E703230293CEE7043831
:1027CC00704710B5002805D0002903D0C16604302D
:1027DC0001F000FE10BD10B5002805D0002903D073
:1027EC000167043001F0F6FD10BD70B505000E0058
:1027FC00FFF7E5FF04009523C35C012B17D0012ED6
:10280C0020D195230022E254236F002B04D0943264
:10281C000021A15420009847210074319423E25CDC
:10282C00D2B2143B9B04280001F0F2FC70BD836E05
:10283C00002BE4D0C36E984795230222E254002368
:10284C00A366DCE70023A36695330122E254A36E52
:10285C007033E118043180235B04280001F048FD3B
:10286C00E4E770B50500FFF7AAFF04009523C35CED
:10287C00012B08D095230222E2540023A3662800E2
:10288C0001F0A8FD70BD836E002BF3D0C36E98478A
:10289C00F0E7000070B50500FFF791FF0400836EB0
:1028AC001F2B07DC836E013383669523E35C012BBE
:1028BC0004D070BD074807F001FDF6E7A36E703336
:1028CC00E118043180235B040122280001F010FD83
:1028DC00EFE7C0460CFF000810B5FFF770FF94231C
:1028EC000022C25410BD10B50400FFF768FF9623F8
:1028FC00C35C002B00D010BD200001F06BFDFAE78B
:10290C0010B5044B1C68200001F078FD200002F08B
:10291C00E7FA10BD900E002010B5044B5C68200047
:10292C0001F06CFD200002F0DBFA10BD900E0020CF
:10293C00064BC35A8022D200944663448D22120166
:10294C00805A181A8005800D7047C046D4080000C4
:10295C00074BC35A9BB28D221201825A934203D069
:10296C00044BC358985C704701204042FBE7C046BB
:10297C00D4080000C80800000A4BC25A92B2043BAB
:10298C00C35A9A420AD0084A8258D25C01339B053A
:10299C009B0D8D21090143521000704701204042CC
:1029AC00FBE7C046D4080000C8080000064BC35A19
:1029BC00064A805A80B2834202D2C01A013870474C
:1029CC00034AD31AC018FAE7D2080000D608000050
:1029DC00FF030000037C002B06D0044BC25A044BAF
:1029EC00C35A9BB29A42F8D17047C046D208000035
:1029FC00D608000010B582B06B46D9710733026857
:102A0C00546801221900A04702B010BD30B583B044
:102A1C0004006B46D91D07F05DFA002810D1C023C5
:102A2C00E35A01339B059B0DBC22A25A9A4207D054
:102A3C006A46D579B422A0580C32A15A4554A352F7
:102A4C0003B030BD91421BD0104BC150104BC25043
:102A5C0001235B420F4A835004328350020011322F
:102A6C000D4BC25000230D4A8352043A83520C4A38
:102A7C0081180C4A81500C4A83520C4A835270477D
:102A8C00024B01214942C150E0E7C046B8080000A2
:102A9C00B4080000BC080000C8080000D4080000FE
:102AAC0011040000CC080000D2080000D608000079
:102ABC0010B5040013002F4A0260002242602E4A17
:102ACC000260FA22920082602C4A0260E0220A42E2
:102ADC0019D11F320A402A4892001058E022D20025
:102AEC0011400143E0221A4228D11F321A402448D7
:102AFC0092001258E020C00003401A432000FFF758
:102B0C00A1FF200010BDC0220A40C02A02D0012122
:102B1C004942E7E73F320A40CA2A0CD83F220A4012
:102B2C00184892001058164A80008258E020C000C5
:102B3C0001401143D6E701214942D3E7C0221A4094
:102B4C00C02A02D001225242D8E73F321A40CA2A88
:102B5C000CD83F221A400B4892001058084A8000AB
:102B6C008258E020C00003401A43C7E701225242BA
:102B7C00C4E7C046900A0108A80A0108ECFF000847
:102B8C00080A0108DC09010810B504000D4BC358F4
:102B9C00002B06D10B4B0122C2500433C358002B1F
:102BAC0000D110BD084BC058012107F06FFD8E23DA
:102BBC001B01E358012BF4D9044BE058012107F019
:102BCC0065FDEEE7DC080000E4080000E808000002
:102BDC00F0B5CE4600B584B004000D000192036838
:102BEC009B6898470390374BE25A8023DB009B1A73
:102BFC0002930123237423689B68200098470028C4
:102C0C00F9D0019F17E0039A93423BD303AB1E68A4
:102C1C0023685B683200290020009847BF1BAD1960
:102C2C0023689B68200098470390264BE25A802328
:102C3C00DB009B1A0293029BBB42E4D3039ABA4279
:102C4C00E1D3204BE35AD9198022D20091421BD8F0
:102C5C001D4AA058C0183A00290008F063FE3E0037
:102C6C00184AA35ADB199B059B0DA352174BE71867
:102C7C00380007F0A5F8002818D0019804B080BCE3
:102C8C00B946F0BD02ABC2E78026F600F61A0E4A32
:102C9C009146A058C0183200290008F043FE4B465C
:102CAC00E058A919BA1B08F03DFED9E7084BE650CD
:102CBC002000FFF769FF07493200380007F04AF996
:102CCC00DBE7C046D2080000CC0800001408000066
:102CDC00D8080000852E000810B504000D4BC35811
:102CEC00012B00D010BD0B4B0022C2500433C35833
:102CFC00002BF7D0084BC058002107F0C7FC8E23DF
:102D0C001B01E358012BEDD9044BE058002107F0CF
:102D1C00BDFCE7E7DC080000E4080000E808000060
:102D2C0070B5040008000A4B0021E1500433023155
:102D3C00E150084BE050084D6251013907F024FC7A
:102D4C006059012107F020FC2000FFF7C5FF70BD82
:102D5C00DC080000E4080000E808000070B505007D
:102D6C000C00002C0AD0E1682800FFF7F7FFA668DA
:102D7C001821200005F076FE3400F2E770BD00004B
:102D8C0010B5012805D0002802D10B4B99420ED06A
:102D9C0010BD094B9942F6D1084B00221A719A606A
:102DAC00074CDC601C615A61064B1A60EBE7034868
:102DBC008168FFF7D3FFEBE7FFFF0000B40E0020A4
:102DCC00B80E0020B00E002030B5100000E0C9682D
:102DDC00002906D00D691C68A542F8D30800896843
:102DEC00F6E730BD10B50B008168021DFFF7ECFF54
:102DFC0010BD70B50D008168041D2B002200FFF77B
:102E0C00E3FF844203D02A6803699A4200D220006F
:102E1C0070BD000010B582B0B1300190114801A90D
:102E2C00FFF7E7FF104B18604469104BE358012B78
:102E3C0001D002B010BD0D4B0022E2500433E35818
:102E4C00002BF6D00A4BE058002107F01FFC8E2314
:102E5C001B01E358012BECD9064BE058002107F07D
:102E6C0015FCE6E7B40E0020B00E0020DC080000D4
:102E7C00E4080000E808000010B582B0C222835AB2
:102E8C00C42141585B189B059B0D8352BE23C15A2C
:102E9C00835A9BB2994204D1FFF7BCFF002002B0C9
:102EAC0010BD8023DB009C466144C224035BCB1A1B
:102EBC00DA17920D9B189B059B0D9B1A0093015BD7
:102ECC006246521A0192934209D86B461A68C4237F
:102EDC00C250044907F03EF801204042DFE701AB45
:102EEC00F4E7C046852E000810B5040040680028A1
:102EFC0002D0182105F0B6FD200010BDF0B5C64675
:102F0C0000B5804617008C680D1D012302E0E268B5
:102F1C0025001400002C08D03E682569AE429B4168
:102F2C005B42AE42F3D2A268F2E72800002B04D039
:102F3C00CB68AB420CD00CF00CFF02693B689A4298
:102F4C000AD243461C605D60404680BCB846F0BD6A
:102F5C0043461C605D60F7E7434618600023424619
:102F6C005360F1E7F0B5C64600B504000E0015003D
:102F7C001F000A1D954213D03A6890462A694245B3
:102F8C002FD9CA68AA4220D028000CF0E2FE0369AF
:102F9C00434520D2C368002B1AD02560656010E031
:102FAC004B69002B08D00B691A693968914203D917
:102FBC0000220260436004E03A0031002000FFF779
:102FCC009DFF200080BCB846F0BD02604260F8E76F
:102FDC0023606060F5E73A0031002000FFF78EFFB8
:102FEC00EFE742451BD20A69AA420BD028000CF02D
:102FFC00ACFE036998450CD2EB68002B06D0206020
:10300C006060DEE7002303604260DAE723606560FE
:10301C00D7E73A0031002000FFF770FFD1E70560D9
:10302C0000234360CDE770B504001D00002909D0D2
:10303C000120231D29000CF090FE636901336361AC
:10304C00280070BD031D9A4205D02B691169994265
:10305C0003D80020EDE70120EBE70120E9E710B5EC
:10306C0082B004000091019200686368FFF7DBFFF7
:10307C000023636002B010BD10B5084B8B4205D322
:10308C0048004018C00005F0E9FC10BD044B994203
:10309C0001D90CF0C8FE0CF0C3FEC04655555505C1
:1030AC00AAAAAA0A10B50C0000220121FFF7E4FF1E
:1030BC00236803616368436110BD30B585B00400BB
:1030CC000D0011000290FFF7EDFF03000390103389
:1030DC002A0021006846FFF745FF019B002B0BD00F
:1030EC0000991A0002A8FFF7BAFF040002A8FFF724
:1030FC00FBFE200005B030BD009CF7E770B5040066
:10310C000D00160011002800FFF76CFE2B1D0100AE
:10311C00834203D0326803699A4208D232002800F5
:10312C00FFF7CBFF206001232371200070BD2060CE
:10313C0000232371F9E70000F0B5CE46474680B571
:10314C0087B004000E008F231B01C1502C4BC254BE
:10315C0007231340042B11D0062B11D0022B0BD0BC
:10316C00002530231340302B0CD093061FD501358E
:10317C008023DB00984609E00625F2E70725F0E7F7
:10318C000825EEE70135C023DB009846120711D560
:10319C0080239B019946082D0FD0092D0FD0072DA8
:1031AC002BD058211748FF3106F092F909E0002383
:1031BC009846EBE700239946EDE7002501E08025D2
:1031CC006D01114BE7184B46009343462A00310022
:1031DC00380006F0BBFB0D49380006F09BFE0C4B8B
:1031EC00E318049305940B4904AA02A8FFF786FF81
:1031FC0007B0C0BCB946B046F0BD80256D05E0E710
:10320C00EC08000080FF000814080000192A0008D0
:10321C00C5080000B40E002010B502490120FFF7CC
:10322C00AFFD10BDFFFF000010B502490020FFF7F5
:10323C00A7FD10BDFFFF0000017442610023036075
:10324C0083604360014BC3607047C046ACC52736F2
:10325C0010B504004069217CFEF728FC6069FEF77C
:10326C0068FD43425841C0B210BD10B5FFF7F0FFE6
:10327C0010BD70B505000C004069297CFEF716FCEA
:10328C00686903681B68210098476869FEF751FD5F
:10329C006869297C0222FEF740FD686903685B6956
:1032AC00984784B22402A4B2686903685B699847A2
:1032BC00204380B270BD000010B50221FFF7D9FF8A
:1032CC000CF0E4FB034A044B0BF03CFD0CF056FCF9
:1032DC0010BDC0462D431CEBE2365A3F10B504001E
:1032EC000421FFF7C6FF00B20AF0FAFC21680AF0CD
:1032FC0007FA10BD70B504000E0015004069217C62
:10330C00FEF7D4FB606903681B683100984760695D
:10331C00290A03681B6898476069E9B203681B684F
:10332C0098476069FEF705FD70BD000070B505009B
:10333C000C00012901D9002070BD0021FFF799FF75
:10334C000A4B02001A4092B223031A4392B2002194
:10335C002800FFF7CFFF012C03D0054BEB600120B9
:10336C00EAE7044BEB600120E6E7C046FFEFFFFF06
:10337C00ACC52736ACC5273570B505000C00072940
:10338C0001D9002070BD0021FFF773FF064B02002E
:10339C001A4092B26402224392B200212800FFF735
:1033AC00A9FF0120EEE7C046FFF1FFFFF0B5D646BE
:1033BC004F464646C0B582B080460C1C91460193E0
:1033CC00111C201C0AF09CF90CF090FB06000F005D
:1033DC008B4A8C4BFDF716F8002800D008E1201C16
:1033EC000CF084FB884A894BFCF7F8FF002800D0CE
:1033FC0001E148460CF07AFB834A844BFCF7EEFF64
:10340C00002800D0F9E07E4A814B30003900FCF7EF
:10341C00EFFF00280BD17A4A7A4B30003900FCF7C9
:10342C00E7FF002806D001239A46002502E004237A
:10343C009A460125EDB229004046FFF777FF290097
:10344C004046FFF773FFE0218905201C0AF058F96C
:10345C00051C43461860019B002B00D187E05046A9
:10346C000AF03EFC49460AF04BF90CF03FFB020017
:10347C000B00684868490BF01FF806000F00281C69
:10348C000CF034FB02000B0030003900FCF7BAFFE3
:10349C00002805D0300039000CF070FB4346186052
:1034AC00434618685D490AF02BF909F0BFFC86B257
:1034BC000136B6B20023002701250FE028000CF0DE
:1034CC00E5FA574A574B0BF03DFC0CF057FB4346C3
:1034DC001860019B032F48D8002B46D1B542EDD282
:1034EC006800B04211DA68004019864219DDA80064
:1034FC00864222DDA800401986422ADDAA00AA18BD
:10350C00520095B20137FFB2E4E70CF0BFFA444A1F
:10351C00444B0BF017FC0CF031FB43461860019B3D
:10352C00D8E70CF0B3FA3E4A3E4B0BF00BFC0CF018
:10353C0025FB43461860019BCCE70CF0A7FA384AF0
:10354C00384B0BF0FFFB0CF019FB43461860019B4A
:10355C00C0E70CF09BFA324A324B0BF0F3FB0CF049
:10356C000DFB43461860019BB4E7002B19D0434672
:10357C00186849460AF0C4F8041C50460AF0B0FB1F
:10358C00211C0AF0BDF80CF0B1FA02000B00214826
:10359C0025490AF091FF08F053FC09F05FFC040088
:1035AC000CE000234246136020481BE04346186899
:1035BC00011C09F03DFD43461860640880231B0282
:1035CC009C42F3D8A2B205214046FFF793FE434636
:1035DC0018688E21C9050AF093F8434698604A464C
:1035EC005A60002002B0E0BCBA46B146A846F0BD15
:1035FC0080200002F6E70E48F4E70E48F2E7C046DA
:10360C007B14AE47E17AB43FFCA9F1D24D62503F36
:10361C00E17A943FF168E388B5F8843E002474495C
:10362C008DEDB5A0F7C6B03EB5F8743F0380000031
:10363C0001800000028000007047000010B50400FB
:10364C00114B1978002901D1012010BDFA208000FE
:10365C00FCF738FD01000D4B1868FCF733FD00F04A
:10366C00C9F800280DD1032C01D90120EDE7013058
:10367C0000222100404200F09DF8054B1C60002008
:10368C00E3E70120E1E7C046B0000020F400002091
:10369C00B400002010B5084A116880235B000B436E
:1036AC0013600020FFF7CAFF041E02D00124200083
:1036BC0010BDFFF7C1FFFAE700200240034B1B7857
:1036CC00034A11685B1813607047C046B0000020B5
:1036DC00CC0E0020014B18687047C046CC0E002061
:1036EC0070B50400FFF7F6FF0500631C02D0044B15
:1036FC001B78E418FFF7EEFF401BA042FAD370BD15
:10370C00B0000020034A136803490B4003431360C5
:10371C007047C04600000140FFF9FFFF70B500285C
:10372C0011DB8308134DC0339B005C5903221040FE
:10373C00C000FC3216008640B44389010A40824026
:10374C0022435A5170BD0F230340083B9B0806339C
:10375C009B00094A944663445C6803221040C000F5
:10376C00FC3215008540AC4389010A40824022435B
:10377C005A60E7E700E100E000ED00E0013880234B
:10378C005B0498420FD2094A50600948036A1B0235
:10379C001B0AC02109060B43036200239360073305
:1037AC001360002070470120FCE7C04610E000E0E9
:1037BC0000ED00E010B5FFF7B1FF10BD002805DBF0
:1037CC001F22024001239340014A13607047C046F8
:1037DC0000E100E000280ADB1F2202400123934095
:1037EC00034980228B50BFF34F8FBFF36F8F70470D
:1037FC0000E100E010B5FFF7C1FF10BD002807DBAA
:10380C001F220240012393400249C02252008B50D8
:10381C007047C04600E100E0704710B5FFF7FCFFB1
:10382C0010BD704710B5041E39D0437F002B25D036
:10383C00022363772379002B24D12368194A5A6118
:10384C002268936818218B4393606379002B22D1F3
:10385C002368012252421A612268936860218B43CB
:10386C0061690B4393602268936880218B43A16943
:10387C000B43936001236377002010BD0377FFF7A0
:10388C00D0FFD5E7E268A168200000F00DF8002811
:10389C00DBD00120F1E7236822691A61DCE7012003
:1038AC00EBE7C046B71DC10430B51F231C00013B1C
:1038BC00002C06D01F241C400D00E5402C00E40712
:1038CC00F4D5102A18D009D8002A0BD0082A03D115
:1038DC000F2B07D901200EE001200CE0182A0FD184
:1038EC00062B0FD80368596101688B681820834335
:1038FC0013438B60002030BD072BF3D90120FAE76E
:10390C000120F8E70120F6E710B5041E0ED003796C
:10391C00002B07D002232371002323610133237171
:10392C00002010BD437105F007F9F3E70120F8E71B
:10393C0010B5041E09D00223037105F061F90023B0
:10394C00236123716371002010BD0120FCE730B5A9
:10395C004379012B2BD0012343710222027105689C
:10396C002C680E320A40934023432B60002910D15F
:10397C00026811683E230B40022B05D00123037112
:10398C0000234371002030BD536801210B43536069
:10399C00F4E704682168F8239B0319400223934041
:1039AC009942EBD16368022213436360E6E702207D
:1039BC00E9E730B50468236810220A4001210D00A4
:1039CC009540AB4323600171002030BD10B582B02F
:1039DC000024019400680190002908D101998A18EB
:1039EC0008320192019A1360002002B010BD0199B7
:1039FC008A1814320192F5E7F8B504000D00160090
:103A0C004379012B00D18BE0012343710133037106
:103A1C000B68042B2ED02B69012B00D174E020688D
:103A2C00C16B102232400723934099432B68AE6838
:103A3C003343EE68334393400B43C36320680368FE
:103A4C008021C90191408B43036020680168354B8C
:103A5C00934099436B6893400B4303602068036861
:103A6C00C02191408B4303600123237100236371B8
:103A7C000020F8BDFFF72EFE0700002E10D02368A3
:103A8C005B6B002B39DAFFF725FEC01B0128F6D93A
:103A9C002369082213432361032323710320E8E7DE
:103AAC0023685B6B1B040CD5FFF714FEC01B0128AD
:103ABC00F6D92369082213432361032323710320BE
:103ACC00D7E70120FFF70CFE2368AA691A64206867
:103ADC00826C10233340144999408A43E969994018
:103AEC000A4382642068C26CFF2199408A43296A88
:103AFC0099400B001343C3648DE70120FFF7F0FDE1
:103B0C002368AA695A64E2E72068816B102232406C
:103B1C001E33934099436B6993400B4383637EE759
:103B2C000220A6E7FE0F0000FF03000030B50028BE
:103B3C0036D02523C35C022B06D00423C363203369
:103B4C000022C254012030BD026813680E218B4341
:103B5C001360426C136813490B40136001680A68C8
:103B6C0001239A430A60104C6268056C1C212940A1
:103B7C008B4013436360836CC26C5A60036D002BE3
:103B8C0006D01A6807490A401A60436D826D5A6064
:103B9C0025230122C254013B0022C2540020D2E74B
:103BAC000120D0E7FFFEFFFF0000024070B5252387
:103BBC00C35C022B03D00423C363012070BD0268D5
:103BCC0013680E218B43136001680A6801239A4322
:103BDC000A60416C0A68134C22400A60124C6268FD
:103BEC00056C1C2129408B4013436360836CC26CB1
:103BFC005A60036D002B06D01A680A490A401A60F5
:103C0C00436D826D5A6025230122C254013B002270
:103C1C00C254836B002B02D098470020CEE70020C3
:103C2C00CCE7C046FFFEFFFF000002402523C05C2E
:103C3C00C0B2704710B50400094BDB68184204D1C0
:103C4C00074B1B69234205D110BD054BD86005F00D
:103C5C00DDFAF5E7024B1C61200005F0DBFAF3E717
:103C6C0000180240026893699B0701D500239362F8
:103C7C0003689A69D20703D49A6901210A439A61AD
:103C8C007047000010B58905890D120411431943C2
:103C9C00029B194349004908046862685B0D802047
:103CAC00C0000340034803439A4313000B43636073
:103CBC0010BDC046FF63FF03436B1B4A934215D0F4
:103CCC001A4A934212D00BB2002B28DB0023CA07EE
:103CDC0001D5F22213438A0701D5F422134310298C
:103CEC001FD020290ED1202213430BE00BB2002B46
:103CFC0003DB10290BD0002300E0B823202908D0C7
:103D0C00402909D001680A6813430B60704790235F
:103D1C00F4E760221343F3E740221343F2E7B8239E
:103D2C00D5E790221343DCE7B14D0008894C00081D
:103D3C0030B5CB0709D54123C35C28221340282B6F
:103D4C0001D0F22302E01A3300E000238A0709D5E0
:103D5C0044241C434122825C28252A40282A0FD067
:103D6C00F42213430AB2002A0CDB10290DD02029AF
:103D7C000ED040290FD001680A689A430A6030BD02
:103D8C002300EFE7B8221343EFE790221343EEE74B
:103D9C0020221343EDE740221343ECE7C36AAA2B1E
:103DAC0005D0C26AAA231B029A4203D07047002393
:103DBC00C362FBE780239B04C362F7E7F0B5C646FA
:103DCC0000B507000D0090461E003B689C692C4016
:103DDC00641B63425C41444516D1731CF5D0FFF75C
:103DEC0079FC069BC01AB04201D8002EEDD17B6C39
:103DFC00202213437B644123FA5400232232BB5408
:103E0C00023ABB54012000E0002080BCB846F0BD53
:103E1C007047000010B5041E59D04123C35C002B21
:103E2C0043D041232422E2542268136801218B439E
:103E3C0013606368226827490B40136122689368FA
:103E4C0025490B409360E368012B34D0A1682268AC
:103E5C0084231B020B439360E368022B32D022684D
:103E6C0051681E4B0B4353602268D3681A490B40B0
:103E7C00D360236962691343A26912022168134358
:103E8C00CB60E369216A22680B43136022681368D4
:103E9C0001210B4313600023636441221F31A154A1
:103EAC0023630132A354002010BD40330022C254BE
:103EBC00FFF7AEFFB5E7A168226880231B020B4316
:103ECC009360C9E72368802212015A60C7E701207A
:103EDC00EAE7C046FFFFFFF0FF7FFFFF0080000214
:103EEC00704770B5041E13D0412524234355026836
:103EFC00136801218B431360FFF7F2FF0023636407
:103F0C00635523634222A354023AA354002070BD8C
:103F1C000120FCE7F0B5CE46474680B585B00600DB
:103F2C00894690461D00002303934133C35C202B2C
:103F3C0000D0A6E003689B691B0400D5A3E04023D6
:103F4C00C35C012B00D1A0E040230122C2540133F9
:103F5C002332C25400234364F368012B18D04B4620
:103F6C009A05920DA0239B01134332685360FFF70F
:103F7C00B1FB07003268916920230B40591E8B411D
:103F8C00DBB2926910241440621E9441E4B212E038
:103F9C004B469A05920D414B1343E6E73268916903
:103FAC0020230B40591E8B41DBB292691024144024
:103FBC00621E9441E4B21C4317D16B1CEED0FFF788
:103FCC0089FBC01BA84201D8002DE7D12022412338
:103FDC00F254736C1343736440230022F254012097
:103FEC0005B0C0BCB946B046F0BD33689B69DB0672
:103FFC0022D500972B00002220213000FFF7DEFE97
:10400C00002846D133681022DA6133681032DA6145
:10401C00039B434522D0039B01330393039B4345EE
:10402C009AD320224123F254736C134373644023BC
:10403C000022F2540120D3E700972B00002220210C
:10404C003000FFF7BBFE002821D132682023D3615A
:10405C004122B35420330022F254C1E73268516834
:10406C008023DB010B43536000972B00002220219F
:10407C003000FFF7A3FE00280DD133682022DA614F
:10408C00C9E70220ACE70220AAE70220A8E701203A
:10409C00A6E70120A4E70120A2E7C0460020000209
:1040AC0070B582B004000D004121415C20294AD139
:1040BC002031415C012948D040210120605401315C
:1040CC002030605401311138605400216164626207
:1040DC006385069BE3621E4B6363638D9BB2FF2B70
:1040EC0010D9FF23238580267604236B112B0DD149
:1040FC00069BAA2B0AD0AA231B02069A9A4205D029
:10410C0000230CE0638D2385E66AEEE72000FFF7C1
:10411C0045FE638D9BB2FF2B13D8E66A0D4B228DA7
:10412C00D2B20093330029002000FFF7ABFD4023EF
:10413C000022E25401212000FFF7BEFD002002B056
:10414C0070BD044BEBE70220F9E70220F7E7C0460D
:10415C00114B00080020008070B582B004000D00E7
:10416C004121415C20294AD12031415C012948D0B0
:10417C00402101206054013121306054013112384A
:10418C0060540021616462626385069BE3621E4B8E
:10419C006363638D9BB2FF2B10D9FF23238580268D
:1041AC007604236B122B0DD1069BAA2B0AD0AA23C3
:1041BC001B02069A9A4205D000230CE0638D2385DE
:1041CC00E66AEEE72000FFF7E9FD638D9BB2FF2B5B
:1041DC0013D8E66A0D4B228DD2B20093330029001E
:1041EC002000FFF74FFD40230022E2540221200063
:1041FC00FFF762FD002002B070BD044BEBE702201C
:10420C00F9E70220F7E7C046114B000800240080B4
:10421C00F8B504000D0016001F004123C35C2822D2
:10422C001340282B58D1002901D0002E04D1802313
:10423C009B006364012050E02949FFF779FD40237E
:10424C00E35C012B4AD040230122E2540133E35CAE
:10425C002A2B27D041232922E2540133093AE25474
:10426C0000236364226853681E490B4053606562E7
:10427C006685638D2385E7621B4B636322689169B6
:10428C0008230B409169C90303D5002B01D00823E7
:10429C00D36140230022E25411492000FFF70CFDAA
:1042AC0000201AE002212000FFF742FD226813686B
:1042BC001B04CFD513680B490B401360E36B002B29
:1042CC00C8D00A4A9A63E06BFFF770FC0028C1D093
:1042DC00E06B836B9847BDE70120F8BD0220FCE73B
:1042EC0001800000FF7FFFFFB14800084B4F000822
:1042FC00F8B504000D0016001F004123C35C2822F2
:10430C001340282B58D1002901D0002E04D1802332
:10431C009B006364012050E02949FFF709FD40230D
:10432C00E35C012B4AD040230122E2540133E35CCD
:10433C00292B27D041232A22E25401330A3AE25492
:10434C0000236364226853681E490B405360656206
:10435C006685638D2385E7621B4B636322689169D5
:10436C0008230B409169C90303D4002B01D0082307
:10437C00D36140230022E25411492000FFF79CFC3A
:10438C0000201AE001212000FFF7D2FC22681368FC
:10439C005B04CFD513680D490B401360A36B002B46
:1043AC00C8D00B4A9A63A06BFFF700FC0028C1D061
:1043BC00A06B836B9847BDE70120F8BD0220FCE79A
:1043CC0002800000FF7FFFFFB1480008FFBFFFFF26
:1043DC004B4F000810B54123C35C202B01D00220A9
:1043EC0010BD21332822C254034B436380210902A0
:1043FC00FFF762FC0020F3E7B148000810B5036832
:10440C0099691A68436B002B00D0984710BD704710
:10441C00704770B5040042230022C254013BC35CB8
:10442C00212B0FD041232022C2542F3B03630025A4
:10443C0045630221FFF77CFC4023E5542000FFF785
:10444C00E7FF70BD20332032C254303B036300259C
:10445C0045630121FFF76CFC4023E5542000FFF776
:10446C00D6FFEEE710B5040003681A68422100205D
:10447C00605451040CD51A6819490A401A6041233A
:10448C00E35C292B0BD04123E35C2A2B17D010BD06
:10449C001204F4D51A6813490A401A60EFE718336E
:1044AC002822E254203B236301212000FFF740FC2B
:1044BC0040230022E2542000FEF70EFAE7E7173300
:1044CC002822E2541F3B236302212000FFF730FC1B
:1044DC0040230022E2542000FEF7DCF9D7E7C04667
:1044EC00FFBFFFFFFF7FFFFFF8B504004123C35C54
:1044FC0028221340282B06D003680822DA614023B7
:10450C000022C254F8BD006885692D0C273B1D4064
:10451C008669360CFE210E4083689B059B0DC7688F
:10452C000F40E268022A24D1DA097240F8391142AC
:10453C0011D1A26C0132A264A26C022AE2D1002237
:10454C00A2640231C161383162541A002900200082
:10455C00FEF74BF9D6E7802109022000FFF7E8FBB4
:10456C0040230022E2543A0029002000FEF73DF9D6
:10457C00C8E7802109022000FFF7DAFB4023002264
:10458C00E254320029002000FEF72FF9BAE70000B0
:10459C0010B50400164BC362002303634122202094
:1045AC00A0540132A3546363490713D523685A6A94
:1045BC00636A1A70636A01336362238D002B09D01E
:1045CC00013B2385638D013B9BB26385636C0422A5
:1045DC001343636407492000FFF7AAFB23681022EA
:1045EC00DA6140230022E2542000FEF73AF910BDB4
:1045FC000000FFFF0380000070477047704710B544
:10460C004123C35C602B06D00023036340228354F8
:10461C00FEF769F910BD1F3B2022C254002303632F
:10462C0020328354FFF7EAFFF4E7000010B50400D2
:10463C004123C35C0022422022543A48E062628546
:10464C00626C0A436264283BDBB2022B1BD8032149
:10465C002000FFF76DFB41232822E254324B6363A9
:10466C00236BA26B002A03D0112B1AD0212B18D04C
:10467C00E26B002A03D0122B33D0222B31D0200036
:10468C00FFF7BDFF10BD29492000FFF751FB412367
:10469C00E35C602B02D041232022E25400236363AD
:1046AC00DEE7226813685B0403D5136820490B40CE
:1046BC001360A06BFFF7BAFA01280ED0A36B1D4A4A
:1046CC009A6340230022E254A06BFFF76FFA002894
:1046DC00D8D0A06B836B9847D4E72000FFF78FFFEF
:1046EC00D0E723681A68120403D51A6812490A40E5
:1046FC001A60E06BFFF79AFA01280ED0E36B0D4AB3
:10470C009A6340230022E254E06BFFF74FFA002833
:10471C00B8D0E06B836B9847B4E72000FFF76FFFCE
:10472C00B0E7C0460000FFFFB1480008038000005E
:10473C00FFBFFFFF4B4F0008FF7FFFFF70B504006A
:10474C000D00026816684123C35CD9B22020D061E9
:10475C00212B0CD029290AD0222901D02A290CD1AD
:10476C004A492000FFF7E4FA2223236305E0484975
:10477C002000FFF7DDFA2123236322685168802390
:10478C001B020B4353602268536842490B40536031
:10479C002000FFF767FA730441D5226813683E497D
:1047AC000B401360A36B002B03D01B685B689BB2A0
:1047BC0063856B0711D504239D4323685A6A636A8A
:1047CC001A70636A01336362238D002B05D0013BA1
:1047DC002385638D013B9BB26385638D9BB2002B5C
:1047EC0003D0636C04221343636400234222A3545A
:1047FC006363636C002B21D1E26A284B9A422AD165
:10480C004123E35C222B36D041232022E2540023A7
:10481C0023632032A3542000FEF75EF82AE036040E
:10482C00C7D5226813681E490B401360E36B002B3D
:10483C00BFD01B685B689BB26385BAE7616C2000D4
:10484C00FFF7F4FE4123E35C282B13D12900200051
:10485C00FFF79EFE0EE02000FFF704FE0F4BE36215
:10486C0041232022E254002323632032A35420004E
:10487C00FDF7F7FF70BD1F332022E25400232363A2
:10488C002032A3542000FEF705F8F3E70280000065
:10489C000180000000E800FEFFBFFFFF0000FFFFEB
:1048AC00FF7FFFFFF8B504000D001600C76A402318
:1048BC00C35C012B00D195E040230122C2548B062E
:1048CC0001D5B30617D4EB0640D5F3063ED5638D60
:1048DC009BB2002B28D14133E35C282B0ED0412313
:1048EC00E35C292B13D023681022DA6140230022C9
:1048FC00E2540020F8BDFFF721FFE4E780239B047E
:10490C009F42ECD129002000FFF742FEEEE7364B28
:10491C009F42E8D023681022DA612000FFF7A2F949
:10492C002000FFF79FFDE1E723681022DA61636C3A
:10493C000C3A13436364002F03D080235B049F4223
:10494C00D4D1616C2000FFF771FECFE76B071ED549
:10495C0073071CD5638D9BB2002B0DD023685A6A4C
:10496C00636A1A70636A01336362238D013B23858A
:10497C00638D013B9BB26385638D9BB2002BB5D1DC
:10498C00194B9F42B2D02000FFF76CFDAEE72B070E
:10499C0001D5330716D4AD07A8D5B607A6D5638DB8
:1049AC009BB2002B13D0626A236812789A62636AF6
:1049BC0001336362638D013B9BB26385238D013BA5
:1049CC00238593E729002000FFF78EFD8EE78023D7
:1049DC005B049F4202D0002F00D087E72000FFF736
:1049EC0041FD83E7022085E70000FFFF30B583B06F
:1049FC0004000D0003682022DA614123C35C212BE3
:104A0C0029D04123C35C222B2BD0226853683B490D
:104A1C000B40536000236363394BE362EB0606D50E
:104A2C0023681022DA61636C0C3A134363644123EC
:104A3C00E35C602B1BD02000FFF714F9626C412360
:104A4C00E35C602B01D0002A1AD0616C2000FFF7C8
:104A5C00EDFD03B030BD0121FFF76AF9112323638B
:104A6C00D3E70221FFF764F912232363CDE76D0727
:104A7C00E1D523685A6AFF2313400193019BDAE7BF
:104A8C004123E35C212B15D04123E35C222BE0D1A5
:104A9C001F332022E254002323634233E35C402B78
:104AAC0023D000234222A354023AA3542000FFF740
:104ABC00AFFCCEE720332022E254002323634233A1
:104ACC00E35C402B08D000234222A354023AA354A7
:104ADC002000FFF79CFCBCE700232232A354023ACF
:104AEC00A3542000FFF788FDB3E700232232A35420
:104AFC00023AA3542000FFF780FDAAE700E800FE6D
:104B0C000000FFFF70B582B004000D0016004023BA
:104B1C00C35C012B00D1ACE040230122C254CB0674
:104B2C0001D5F3061ED46B0726D5730724D50423B1
:104B3C009D4323685A6A636A1A70636A013363621D
:104B4C00238D013B2385638D013B9BB26385AB06B3
:104B5C0002D5B60600D587E040230022E25400209F
:104B6C0002B070BD03680F32DA61436C0C3A134328
:104B7C004364FFF777F8EAE7AB0710D5B3070ED518
:104B8C00626A236812789A62636A01336362238DC6
:104B9C00013B2385638D013B9BB26385D7E72B06D5
:104BAC0040D573063ED5638D9BB2002B2DD0238D43
:104BBC00002B2AD1236859688905890D638D9BB216
:104BCC00FF2B0ED8628D92B22285E06A2A4B984256
:104BDC0012D0E36AD2B2002000902000FFF752F806
:104BEC00B5E7FF2323857F3B002200925B04FF3255
:104BFC002000FFF747F8AAE78023D2B200200090EC
:104C0C009B042000FFF73EF8A1E723685B689B013B
:104C1C0003D42000FFF7FDFB99E740212000FFF7AC
:104C2C0005FD94E76B0600D491E7730600D48EE77C
:104C3C00638D9BB2002B12D1226853689B0100D567
:104C4C0085E7E16A0C4B994205D151688023DB0161
:104C5C000B4353607BE72000FFF7DBFB77E740213A
:104C6C002000FFF7E3FC72E729002000FFF7BEFEEF
:104C7C0072E7022074E7C0460000FFFFF8B504009D
:104C8C000D001600C76A4023C35C012B00D184E0E1
:104C9C0040230122C2548B0601D5B30616D4EB0671
:104CAC006DD5F3066BD5C0231B021E4263D0E36B9C
:104CBC00002B0ED08021090232000A400E4209D08E
:104CCC001B685B68002B2BD0002203E0FFF736FD3E
:104CDC00E5E70022A36B002B05D0760403D51B68F7
:104CEC005B68002B1ED0012A1CD023681022DA61CD
:104CFC00636C0C3A134363644123E35CDBB2002F17
:104D0C0003D08022520497423DD1212B2CD0292B49
:104D1C002AD0222B01D02A2B28D12223236325E051
:104D2C000122D7E74123E35C282B07D04123E35C26
:104D3C00292B0CD023681022DA6124E080239B04F9
:104D4C009F42F3D129002000FFF722FC1BE0144BFB
:104D5C009F42EFD023681022DA612000FEF782FF19
:104D6C002000FFF77FFB0EE021232363616C200002
:104D7C00FFF75CFC07E023681022DA6103E02B07E5
:104D8C0001D5360704D440230022E2540020F8BD9C
:104D9C0029002000FFF7A8FBF5E70220F7E7C04643
:104DAC000000FFFF10B582B004004023C35C012B50
:104DBC0000D190E040230120E054CB0601D5D3066E
:104DCC002FD40B0660D553065ED52268136840219C
:104DDC008B431360638D9BB2002B48D023685968BA
:104DEC008905890D638D9BB2FF2B2ED9FF2323855B
:104DFC0080235B04228DD2B2002000902000FEF7AD
:104E0C0041FF638D228D9B1A9BB263854123E35C2A
:104E1C00222B25D0226811688023DB010B43136001
:104E2C000DE023681022DA61636C0C3A134363645F
:104E3C0020212000FEF740FF2000FEF713FF402347
:104E4C000022E254002002B010BD638D2385E26A7B
:104E5C00224B9A4201D0E36ACCE780239B04C9E73A
:104E6C002268116880231B020B431360E7E7236859
:104E7C005B689B0103D42000FFF7CBFADFE74021EE
:104E8C002000FFF7D3FBDAE74B061CD553061AD5E7
:104E9C00638D9BB2002B11D1226853689B01CED439
:104EAC00E16A0E4B994205D151688023DB010B431B
:104EBC005360C4E72000FFF7ACFAC0E740212000A4
:104ECC00FFF7B4FBBBE78B06B9D59206B7D520002C
:104EDC00FFF78CFDB3E70220B5E7C0460000FFFFEB
:104EEC0070B5026893691168DC0508D50C0606D507
:104EFC00446C01252C43446480246400D4615A051D
:104F0C0009D50A0607D5426C08242243426402687C
:104F1C008024E400D4619B0509D5090607D5436CB0
:104F2C000222134343640368FF32FF32DA61416C9F
:104F3C000B230B4200D170BDFFF778FBFBE710B5DC
:104F4C00806A836B002B01D000229A63C36B002B09
:104F5C0001D000229A63FFF752FB10BD4123C05CC5
:104F6C00C0B27047406C7047034A116880235B00E5
:104F7C000B4313607047C0460070004010B5104AD8
:104F8C00136810490B400343136080239B00984225
:104F9C0001D0002010BD0C4B1B685800C0184000FD
:104FAC000A49FBF78FF80130054B5B695B0503D5AC
:104FBC00002803D00138F7E70020EBE70320E9E7EE
:104FCC0000700040FFF9FFFFF400002040420F008A
:104FDC0070B582B0041E00D131E20368DB0739D50D
:104FEC00C14A916838230B40D16803220A40102B28
:104FFC0026D0082B26D063688022520293427FD0A1
:10500C00A022D202934200D181E0B74B1A68B74973
:10501C000A401A601A68B6490A401A606368002B85
:10502C0000D180E0FEF756FB0500AF4B1B689B03DD
:10503C0010D4FEF74FFB401B6428F6D90320FFE188
:10504C00032AD6D1A84B1B689B0303D56368002B9E
:10505C0000D1F7E123689B0731D5A34A9168382327
:10506C000B40D16803220A40102B6AD0002B6BD165
:10507C009D4A1268520503D5E268002A00D1E3E18B
:10508C00994842689B490A40616909020A43426097
:10509C00002B0DD1036898490B4021690B43036029
:1050AC000368DB0A07221A40944BD340944A1360DE
:1050BC00944B1868FEF7C2FA002800D0C6E12368AA
:1050CC001B0700D481E0884B9A6838231340182BB7
:1050DC0073D0A369002B00D1B4E0834A136E012175
:1050EC000B431366FEF7F6FA05007F4B1B6E9B070E
:1050FC006BD4FEF7EFFA401B0228F6D903209FE190
:10510C00794A116880235B020B43136086E7764B68
:10511C0019688022D2020A431A601968802252024E
:10512C000A431A607AE7FEF7D5FA05006E4B1B6846
:10513C009B038FD5FEF7CEFA401B6428F6D90320CB
:10514C007EE1022A92D193E7E368002B22D0664AD3
:10515C00136869490B4021690B4313601168802364
:10516C005B000B431360FEF7B5FA05005E4B1B6842
:10517C005B0506D4FEF7AEFA401B0228F6D90320D5
:10518C005EE159494B685B4A134062691202134352
:10519C004B6094E7544A13685B490B401360FEF76D
:1051AC0099FA0500504B1B685B0588D5FEF792FAFF
:1051BC00401B0228F6D9032042E14B4B1B6E9B0788
:1051CC0003D5A369002B00D142E123685B0700D40F
:1051DC00A2E0454B9A6838231340202B45D0424B14
:1051EC00DB6BDB004AD4404BDA6B802149050A4368
:1051FC00DA63DB6B0B400193019B0125434B1B686E
:10520C00DB053DD5A368012B4ED0052B52D0364B78
:10521C00DA6D01218A43DA65DA6D03318A43DA6586
:10522C00A368002B50D0FEF755FA06002E4BDB6D11
:10523C009B076FD4FEF74EFA801B354B9842F5D97D
:10524C000320FDE0284A136E01218B431366FEF701
:10525C0041FA0500244B1B6E9B07B6D5FEF73AFAB4
:10526C00401B0228F6D90320EAE01F4BDB6D9B079D
:10527C0052D5A368002B4FD10120E1E00025BDE7FA
:10528C00224A116880235B000B431360FEF722FA5D
:10529C0006001E4B1B68DB05B4D4FEF71BFA801B03
:1052AC000228F6D90320CBE00F4AD36D01210B4322
:1052BC00D365B5E70C4BDA6D04210A43DA65DA6D78
:1052CC0003390A43DA65ABE7FEF704FA0600064B2E
:1052DC00DB6D9B071ED5FEF7FDF9801B0C4B98422E
:1052EC00F5D90320ACE0C04600100240FFFFFEFFE2
:1052FC00FFFFFBFFFF80FFFFFFC7FFFF0024F40051
:10530C00F4000020B4000020FFFEFFFF00700040FE
:10531C0088130000012D1ED0E369002B00D199E009
:10532C00544A916838220A40102A60D0022B18D0B7
:10533C00504A136850490B401360FEF7CBF9040038
:10534C004C4B1B689B014BD5FEF7C4F9001B022884
:10535C00F6D9032074E0474AD36B48490B40D3631A
:10536C00DAE7444A136844490B401360FEF7B2F97C
:10537C000500404B1B689B0106D5FEF7ABF9401BA3
:10538C000228F6D903205BE03A4AD3683C4919401D
:10539C00236A606A0343A06A00020343E06A034382
:1053AC00206B0343606B03430B43D3601168802372
:1053BC005B040B431360D16880235B050B43D36004
:1053CC00FEF788F904002B4B1B689B0106D4FEF7F3
:1053DC0081F9001B0228F6D9032031E000202FE0D0
:1053EC00244AD36827490B40D360002028E0012BC6
:1053FC0032D0204BDA6803231340216A8B422DD123
:10540C0070231340616A8B422AD1FE21C9011140DD
:10541C00A36A1B02994225D1F8239B031340E16A2E
:10542C008B4221D1E0231B051340216B8B421DD1F4
:10543C00520F5207636B9A421AD1002000E00120F0
:10544C0002B070BD0120FBE70120F9E70120F7E76E
:10545C000120F5E70020F3E70120F1E70120EFE759
:10546C000120EDE70120EBE70120E9E70120E7E768
:10547C000120E5E700100240FFFFFFFEFFFFFFEFFA
:10548C008C80C111FCFFFEEE10B52A4B9B683822B4
:10549C001A4207D1274B1A68D20A07231340264811
:1054AC00D84010BD234B9A6838231340082B3BD0AF
:1054BC00204B9A6838231340102B0DD01D4B9A6843
:1054CC0038231340202B31D01A4B9A6838231340C1
:1054DC00182B26D00020E4E7164AD1680D3B0B4070
:1054EC00D2681209072111400131032B0FD0124849
:1054FC00FAF7E8FD0F4BDA68120A7F231340584382
:10550C000C4BD968490F0131FAF7DCFDC9E70B48A0
:10551C00FAF7D8FD074BDA68120A7F231340584379
:10552C00EEE7FA20C001BCE70448BAE7802000028D
:10553C00B7E7C046001002400024F40000127A00C5
:10554C0070B504000D00002800D1AAE0574B1A6872
:10555C00072313408B4221D323689A070ED55B0790
:10556C0005D5534A9168E023DB010B439360504A05
:10557C00936850490B40A1680B4393602368DB0789
:10558C0054D56368012B20D0022B3BD0002B3FD18C
:10559C00474A126852051CD401206AE0434A13683A
:1055AC0007218B432B431360FEF794F806003F4B07
:1055BC001A6807231340AB42CED0FEF78BF8801B42
:1055CC003D4A9042F3D9032053E0394A12689203C2
:1055DC0069D537498A680720824313438B60FEF7ED
:1055EC0079F80600324B9B6838221A406368DB005E
:1055FC009A421BD0FEF76EF8801B2F4B9842F1D9C4
:10560C00032036E02A4A12689201E2D4012030E0ED
:10561C00032B05D0264AD26D9207DAD4012028E05C
:10562C00234A126E9207D4D4012022E01F4B1A6831
:10563C0007231340AB421DD823685B0706D51C4AD1
:10564C0093681E490B40E1680B439360FFF71CFF06
:10565C00174B9A68120A0F231340194A9B009A5849
:10566C001F231340D840174B1860174B1868FDF7D1
:10567C00E5FF70BD0D4A136807218B432B43136064
:10568C00FEF728F80600094B1A6807231340AB42B3
:10569C00D2D0FEF71FF8801B074B9842F3D903209A
:1056AC00E7E70120E5E70120E3E7C04600200240E0
:1056BC0000100240FFF0FFFF88130000FF8FFFFF78
:1056CC00F8030108F4000020B4000020014B186816
:1056DC007047C046F400002010B5FFF7F7FF064BEB
:1056EC009A68120B07231340044A9B009A581F23F5
:1056FC001340D84010BDC04600100240D80301082A
:10570C0030B507230360094A94681C4044609468D0
:10571C00F0252D012C4084609268E024E4012240A5
:10572C00C260034A126813400B6030BD0010024087
:10573C000020024010B5040080239B02984247D001
:10574C00B54BDA6803231340022B68D0B24BDA68EE
:10575C0003231340032B60D00020AF4BDB681B09E5
:10576C00072119400131FAF7ADFC03008022D20069
:10577C00944200D1B0E154D980221203944200D15A
:10578C00EEE000D8A5E080229203944200D1CCE157
:10579C008022D203944200D0B7E09F4A526DD201CE
:1057AC0000D4E0E19C4AD1688022520408001040E9
:1057BC00114231D09849CA68120A7F2010405843D0
:1057CC00CB685B0E072119400131FAF77BFC23E013
:1057DC00914AD36DC02189000B40D26D920704D53C
:1057EC0080225200934200D1C0E18B4A126E920784
:1057FC0004D580229200934200D1BAE1864A116806
:10580C008022920208001040114205D0C022920062
:10581C00934200D1B0E1002010BD80489DE7804844
:10582C009BE7102C00D1B2E02FD9202C00D1F9E04D
:10583C0080239B009C424AD1774B5A6DC0231B039B
:10584C00110019401A4200D143E1734B1B6E9B07A8
:10585C0004D58023DB02994200D1ABE16E4B1B686F
:10586C005B0504D580231B03994200D1A5E16A4B4B
:10587C00DB6D0222100018401A42CDD0C0231B034E
:10588C00994200D19BE10020C6E7012C3FD0022CAD
:10589C001BD1614B5B6D0C22110019401A4259D07F
:1058AC0004295AD05C4B1B685B0502D5082900D132
:1058BC0069E1594BDB6D0222100018401A42ABD043
:1058CC000C2900D161E10020A6E70020A4E700200C
:1058DC00A2E780221201944200D1C5E08022D201BD
:1058EC00944210D14C4A526D920F9107002A78D0F5
:1058FC0080221206914200D154E18022D2059142BD
:10590C0072D0002088E7002086E7002084E7424B15
:10591C005B6D0322110019401A4215D0012916D0D3
:10592C003D4B1B685B0502D5022900D126E13A4BA1
:10593C00DB6D0222100018401A4200D16CE70329DB
:10594C0000D11DE1002067E7FFF7C6FE64E7FFF713
:10595C009BFD61E7FFF7C0FE5EE7FFF795FD5BE798
:10596C002D4A516D40230B401268520502D5002B75
:10597C0000D10DE1284AD26D0221080010401142DD
:10598C0000D149E7002B00D004E1180044E7224B7A
:10599C005A6DC0231B01110019401A421BD08023E1
:1059AC00DB0099421AD01C4B1B685B0504D5802385
:1059BC001B01994200D1F0E0174BDB6D0222100065
:1059CC0018401A4200D127E7C0231B01994200D18D
:1059DC00E5E0002020E7FFF77FFE1DE7FFF754FD11
:1059EC001AE7FFF751FD17E70B4AD16880225202E4
:1059FC0008001040114200D10EE70749CA68120A8C
:105A0C007F2010405843CB685B0C1F21194001319B
:105A1C00FAF758FB00E7C0460010024000127A006B
:105A2C000024F4006B4B5A6DC0239B0111001940EC
:105A3C001A4213D080235B01994212D0654B1A682D
:105A4C008023DB00100018401A4200D1E4E68023CA
:105A5C009B01994200D1A7E00020DDE6FFF73CFE58
:105A6C00DAE6FFF711FDD7E65A4A526DC02109025A
:105A7C000A408021C9018A4211D0002A26D0554BF8
:105A8C001B685B0504D580231B029A4200D18DE074
:105A9C00C0231B029A4200D18AE00020BCE64D4A8A
:105AAC00D1688022520208001040114200D1B3E6A6
:105ABC004849CA68120A7F2010405843CB685B0CD7
:105ACC001F2119400131FAF7FDFAA5E6FFF7DCFCBE
